:020000040800F2
:10000000000005205D200008611F0008631F000834
:10001000651F0008671F0008691F00080000000036
:10002000000000000000000000000000918C0008AB
:100030006B1F000800000000318D0008958D00083E
:10004000AD200008AD200008AD200008AD2000085C
:10005000AD200008AD200008AD200008AD2000084C
:10006000AD200008AD200008AD200008AD2000083C
:10007000AD200008AD200008AD200008AD2000082C
:10008000AD200008AD200008AD200008AD2000081C
:10009000AD200008AD200008AD200008AD2000080C
:1000A000AD200008AD200008AD2000086D1F00083D
:1000B000AD200008791F0008AD200008AD20000821
:1000C000AD200008AD200008AD200008AD200008DC
:1000D000AD200008AD200008AD200008AD200008CC
:1000E000AD200008AD200008AD200008AD200008BC
:1000F000AD200008AD200008AD200008AD200008AC
:10010000AD200008AD200008AD200008AD2000089B
:10011000AD200008AD200008851F0008AD200008B4
:10012000AD200008AD200008AD200008AD2000087B
:10013000AD200008AD200008AD200008AD2000086B
:10014000AD200008AD200008AD200008AD2000085B
:10015000AD200008AD200008AD200008AD2000084B
:10016000AD200008AD200008AD200008AD2000083B
:10017000AD200008AD200008AD2000080000000000
:10018000AD200008AD200008AD200008AD2000081B
:10019000AD200008AD200008AD200008AD2000080B
:1001A000911F0008AD2000089D1F0008AD20000829
:1001B000AD200008AD200008AD200008AD200008EB
:0801C000AD200008AD2000088D
:1001D00010B5054C237833B9044B13B10448AFF381
:1001E00000800123237010BD900200200000000059
:1001F000E0ED020808B5034B1BB103490348AFF318
:10020000008008BD0000000094020020E0ED02081C
:1002100001F0FF01102A2BDB10F0070F08D010F8B7
:10022000013B013A8B422DD010F0070F42B3F6D1BB
:10023000F0B441EA012141EA014122F007047FF0D4
:1002400000070023F0E80256083C85EA010586EA2B
:10025000010685FA47F5A3FA87F586FA47F6A5FA67
:1002600087F68EB9EED1F0BC01F0FF0102F0070273
:1002700032B110F8013B013A83EA010313B1F8D11E
:100280000020704701387047002D06BF35460338FF
:10029000073815F0010F07D1013015F4807F02BF38
:1002A000013015F4C03F0130F0BC0138704700BF89
:1002B000034613F8012B002AFBD1181A01387047A6
:1002C00081F0004102E000BF83F0004330B54FEA07
:1002D00041044FEA430594EA050F08BF90EA020F74
:1002E0001FBF54EA000C55EA020C7FEA645C7FEA07
:1002F000655C00F0E2804FEA5454D4EB5555B8BF2A
:100300006D420CDD2C4480EA020281EA030382EA9A
:10031000000083EA010180EA020281EA0303362D2C
:1003200088BF30BD11F0004F4FEA01314FF4801CFF
:100330004CEA113102D0404261EB410113F0004F11
:100340004FEA03334CEA133302D0524263EB4303C8
:1003500094EA050F00F0A780A4F10104D5F1200E66
:100360000DDB02FA0EFC22FA05F2801841F10001C1
:1003700003FA0EF2801843FA05F359410EE0A5F195
:1003800020050EF1200E012A03FA0EFC28BF4CF0C6
:10039000020C43FA05F3C01851EBE37101F000457C
:1003A00007D54FF0000EDCF1000C7EEB00006EEB89
:1003B0000101B1F5801F1BD3B1F5001F0CD3490813
:1003C0005FEA30004FEA3C0C04F101044FEA44526A
:1003D00012F5800F80F09A80BCF1004F08BF5FEAF1
:1003E000500C50F1000041EB045141EA050130BDD1
:1003F0005FEA4C0C404141EB0101013C28BFB1F5E3
:10040000801FE9D291F0000F04BF01460020B1FA2D
:1004100081F308BF2033A3F10B03B3F120020CDA00
:100420000C3208DD02F1140CC2F10C0201FA0CF0DE
:1004300021FA02F10CE002F11402D8BFC2F1200C43
:1004400001FA02F120FA0CFCDCBF41EA0C019040F9
:10045000E41AA2BF01EB0451294330BD6FEA040442
:100460001F3C1CDA0C340EDC04F11404C4F120022D
:1004700020FA04F001FA02F340EA030021FA04F33F
:1004800045EA030130BDC4F10C04C4F1200220FA96
:1004900002F001FA04F340EA0300294630BD21FAD4
:1004A00004F0294630BD94F0000F83F4801306BF9A
:1004B00081F480110134013D4EE77FEA645C18BF8E
:1004C0007FEA655C29D094EA050F08BF90EA020F25
:1004D00005D054EA000C04BF1946104630BD91EA1D
:1004E000030F1EBF0021002030BD5FEA545C05D120
:1004F0004000494128BF41F0004130BD14F580045F
:100500003CBF01F5801130BD01F0004545F0FE41D2
:1005100041F470014FF0000030BD7FEA645C1ABF07
:10052000194610467FEA655C1CBF0B46024650EA3E
:10053000013406BF52EA033591EA030F41F400216A
:1005400030BD00BF90F0000F04BF0021704730B5F0
:100550004FF4806404F132044FF000054FF00001C5
:1005600050E700BF90F0000F04BF0021704730B586
:100570004FF4806404F1320410F0004548BF40425B
:100580004FF000013EE700BF42004FEAE2014FEAB0
:1005900031014FEA02701FBF12F07F4393F07F4F8B
:1005A00081F06051704732F07F4208BF704793F08E
:1005B0007F4F04BF41F40021704730B54FF46074A1
:1005C00001F0004521F000411CE700BF50EA0102A4
:1005D00008BF704730B54FF000050AE050EA01024D
:1005E00008BF704730B511F0004502D5404261EBBD
:1005F00041014FF4806404F132045FEA915C3FF4FE
:10060000D8AE4FF003025FEADC0C18BF03325FEA9A
:10061000DC0C18BF033202EBDC02C2F1200300FA4B
:1006200003FC20FA02F001FA03FE40EA0E0021FA70
:1006300002F11444BDE600BF70B54FF0FF0C4CF45E
:10064000E06C1CEA11541DBF1CEA135594EA0C0F10
:1006500095EA0C0F00F0DEF82C4481EA030621EA4B
:100660004C5123EA4C5350EA013518BF52EA033586
:1006700041F4801143F4801338D0A0FB02CE4FF038
:100680000005E1FB02E506F00042E0FB03E54FF068
:100690000006E1FB03569CF0000F18BF4EF0010E60
:1006A000A4F1FF04B6F5007F64F5407404D25FEA5C
:1006B0004E0E6D4146EB060642EAC62141EA55510F
:1006C0004FEAC52040EA5E504FEACE2EB4F1FD0C51
:1006D00088BFBCF5E06F1ED8BEF1004F08BF5FEACF
:1006E000500E50F1000041EB045170BD06F0004681
:1006F00046EA010140EA020081EA0301B4EB5C042E
:10070000C2BFD4EB0C0541EA045170BD41F4801125
:100710004FF0000E013C00F3AB8014F1360FDEBF4A
:10072000002001F0004170BDC4F10004203C35DA26
:100730000C341BDC04F11404C4F1200500FA05F3A9
:1007400020FA04F001FA05F240EA020001F000424A
:1007500021F0004110EBD37021FA04F642EB0601C0
:100760005EEA430E08BF20EAD37070BDC4F10C04EA
:10077000C4F1200500FA04F320FA05F001FA04F2AE
:1007800040EA020001F0004110EBD37041F100019A
:100790005EEA430E08BF20EAD37070BDC4F12005A5
:1007A00000FA05F24EEA020E20FA04F301FA05F20D
:1007B00043EA020321FA04F001F0004121FA04F2B5
:1007C00020EA020000EBD3705EEA430E08BF20EA85
:1007D000D37070BD94F0000F0FD101F000464000BF
:1007E00041EB010111F4801F08BF013CF7D041EA41
:1007F000060195F0000F18BF704703F00046520045
:1008000043EB030313F4801F08BF013DF7D043EA15
:100810000603704794EA0C0F0CEA135518BF95EACB
:100820000C0F0CD050EA410618BF52EA4306D1D152
:1008300081EA030101F000414FF0000070BD50EA71
:10084000410606BF1046194652EA430619D094EAFB
:100850000C0F02D150EA013613D195EA0C0F05D1E5
:1008600052EA03361CBF104619460AD181EA030139
:1008700001F0004141F0FE4141F470014FF00000F1
:1008800070BD41F0FE4141F4780170BD70B54FF08C
:10089000FF0C4CF4E06C1CEA11541DBF1CEA13550C
:1008A00094EA0C0F95EA0C0F00F0A7F8A4EB0504EE
:1008B00081EA030E52EA03354FEA013100F08880E5
:1008C0004FEA03334FF0805545EA131343EA1263AE
:1008D0004FEA022245EA111545EA10654FEA002663
:1008E0000EF000419D4208BF964244F1FD0404F51C
:1008F000407402D25B084FEA3202B61A65EB030578
:100900005B084FEA32024FF480104FF4002CB6EB34
:10091000020E75EB030E22BFB61A754640EA0C00B4
:100920005B084FEA3202B6EB020E75EB030E22BFF4
:10093000B61A754640EA5C005B084FEA3202B6EB35
:10094000020E75EB030E22BFB61A754640EA9C00F4
:100950005B084FEA3202B6EB020E75EB030E22BFC4
:10096000B61A754640EADC0055EA060E18D04FEA82
:10097000051545EA16754FEA06164FEAC30343EA22
:1009800052734FEAC2025FEA1C1CC0D111F4801FEF
:100990000BD141EA00014FF000004FF0004CB6E7E8
:1009A00011F4801F04BF01430020B4F1FD0C88BF87
:1009B000BCF5E06F3FF6AFAEB5EB030C04BFB6EB92
:1009C000020C5FEA500C50F1000041EB045170BD85
:1009D0000EF0004E4EEA113114EB5C04C2BFD4EBB2
:1009E0000C0541EA045170BD41F480114FF0000E36
:1009F000013C90E645EA060E8DE60CEA135594EAB2
:100A00000C0F08BF95EA0C0F3FF43BAF94EA0C0FB4
:100A10000AD150EA01347FF434AF95EA0C0F7FF429
:100A200025AF104619462CE795EA0C0F06D152EA7D
:100A300003353FF4FDAE1046194622E750EA410661
:100A400018BF52EA43067FF4C5AE50EA41047FF472
:100A50000DAF52EA43057FF4EBAE12E74FF0FF3CD7
:100A600006E000BF4FF0010C02E000BF4FF0010CA8
:100A70004DF804CD4FEA410C7FEA6C5C4FEA430C21
:100A800018BF7FEA6C5C1BD001B050EA410C0CBF70
:100A900052EA430C91EA030F02BF90EA020F0020D2
:100AA000704710F1000F91EA030F58BF994208BF39
:100AB00090422CBFD8176FEAE37040F001007047F6
:100AC0004FEA410C7FEA6C5C02D150EA013C07D14D
:100AD0004FEA430C7FEA6C5CD6D152EA033CD3D098
:100AE0005DF8040B704700BF8446104662468C4692
:100AF0001946634600E000BF01B5FFF7B7FF0028C5
:100B000048BF10F1000F01BD4DF808EDFFF7F4FFED
:100B10000CBF012000205DF808FB00BF4DF808ED78
:100B2000FFF7EAFF34BF012000205DF808FB00BF9B
:100B30004DF808EDFFF7E0FF94BF012000205DF8BD
:100B400008FB00BF4DF808EDFFF7CEFF94BF012072
:100B500000205DF808FB00BF4DF808EDFFF7C4FF6B
:100B600034BF012000205DF808FB00BF4FEA410CB4
:100B70007FEA6C5C02D150EA013C0AD14FEA430C97
:100B80007FEA6C5C02D152EA033C02D14FF00000D4
:100B900070474FF0010070474FEA410212F5001212
:100BA00015D211D56FF47873B3EB625212D94FEAB4
:100BB000C12343F0004343EA505311F0004F23FA9E
:100BC00002F018BF404270474FF00000704750EAF3
:100BD000013005D111F0004008BF6FF000407047B0
:100BE0004FF00000704700BF4FEA4102B2F1E0430E
:100BF00024BFB3F5001CDCF1FE5C0DD901F0004C04
:100C00004FEAC0024CEA5070B2F1004F40EB830053
:100C100008BF20F00100704711F0804F21D113F17F
:100C20003872BCBF01F00040704741F480114FEAB8
:100C30005252C2F11802C2F1200C10FA0CF320FA41
:100C400002F018BF40F001004FEAC1234FEAD3235E
:100C500003FA0CFC40EA0C0023FA02F34FEA4303C8
:100C6000CCE77FEA625307D150EA01331EBF4FF051
:100C7000FE4040F44000704701F0004040F0FE406C
:100C800040F40000704700BF53B94AB9002908BFBB
:100C900000281CBF4FF0FF314FF0FF3000F070B95B
:100CA000ADF1080C6DE904CE00F006F8DDF804E0C3
:100CB000DDE9022304B070472DE9F047089E0D4698
:100CC00004460F46002B4AD18A42944665D9B2FAAF
:100CD00082F343B102FA03FCC3F120029F4020FAE1
:100CE00002F217439C404FEA1C4E1FFA8CF5B7FBEB
:100CF000FEF1220C0EFB117742EA074201FB05F0E0
:100D000090420AD91CEB020201F1FF3780F01C81EE
:100D1000904240F2198102396244121AA4B2B2FB25
:100D2000FEF00EFB102244EA024400FB05F5A5424A
:100D30000AD91CEB040400F1FF3280F00781A542C0
:100D400040F204816444023840EA0140641B0021FF
:100D50001EB1DC400023C6E90043BDE8F0878B42AA
:100D600008D9002E00F0ED800021C6E900050846F4
:100D7000BDE8F087B3FA83F1002949D1AB4202D331
:100D8000824200F2F880841A65EB030201201746C4
:100D9000002EE2D0C6E90047DFE702B9FFDEB2FA73
:100DA00082F3002B40F090808A1A4FEA1C471FFA0A
:100DB0008CFE0121B2FBF7F507FB1520220C42EA5D
:100DC00000420EFB05F0904208D91CEB020205F12F
:100DD000FF3802D2904200F2CB804546121AA4B2EC
:100DE000B2FBF7F007FB102244EA02440EFB00FEC0
:100DF000A64508D91CEB040400F1FF3202D2A64537
:100E000000F2BB801046A4EB0E0440EA05409FE7C9
:100E1000C1F120078B4022FA07FC4CEA030C05FACB
:100E200001F420FA07F3FD404FEA1C492343B5FBC8
:100E3000F9F81FFA8CFE09FB18551C0C44EA05440E
:100E400008FB0EF5A54202FA01F200FA01F00BD9F7
:100E50001CEB040408F1FF3A80F08880A54240F2C0
:100E60008580A8F102086444641B9DB2B4FBF9F3C9
:100E700009FB134445EA044403FB0EFEA64508D9CA
:100E80001CEB040403F1FF356CD2A6456AD9023B82
:100E9000644443EA0843A3FB0295A4EB0E04AC426E
:100EA000C846AE4656D353D056B1B0EB080264EBF9
:100EB0000E0404FA07F7CA40CC401743C6E9007491
:100EC00018460021BDE8F087C3F1200102FA03FCB7
:100ED00020FA01F225FA01F19D402A434FEA1C470E
:100EE0001FFA8CFEB1FBF7F007FB1015110C41EA5D
:100EF000054100FB0EF58D4204FA03F408D91CEB02
:100F0000010100F1FF382FD28D422DD90238614402
:100F1000491B92B2B1FBF7F507FB151142EA0142FA
:100F200005FB0EF1914208D91CEB020205F1FF38D6
:100F300016D2914214D9023D6244521A45EA004148
:100F400038E73146304608E73946E6E61046FBE624
:100F50004845A9D2B9EB020865EB0C0E013BA3E7AB
:100F60004546EAE72B4694E74046D1E7D0467BE783
:100F7000023D624432E708460AE76444023842E729
:100F8000704700BF0149002009F070B859250008DA
:100F9000034B00221B685A625A6A8242FCD3704794
:100FA0000C05002010B5094C01224FF400712046B9
:100FB00004F028FD0A20FFF7EBFF4FF400712046F4
:100FC0000022BDE8104004F01DBD00BF0014024027
:100FD000FEE700000000000080B5DFF8E880DFF8E1
:100FE000E89031482BF004FE2DA7D7E9006798F868
:100FF000003003F0FF012BB1002388F80030FFF729
:10100000D1FFF4E799F80030284D03F0FF0A9BB1B7
:10101000274C89F80010204606F063FB254B18602A
:1010200001232B7023681A6A22F00A021A621A6AD4
:1010300042F002021A62DAE72B78002BD7D01C4C60
:101040005146204606F04DFB1B4B24681860194B97
:101050001A4A1B68C4F824A0984219D9C01A106013
:101060001068FFF76FFA3B463246FFF7E5FAFFF7E5
:10107000BBFD134B186000232B70236A23F00A0377
:101080002362236A2362E36823F00203E360AEE78E
:10109000E6D2C3F57F43FF331844E0E7AFF30080A7
:1010A0009CC420B07268913F38EE0208C80200204C
:1010B000C0040020C0020020C4020020D40200208E
:1010C000DC0200202C060020D002002000000000DE
:1010D0000268274B9A422DE9F041044613D1077F5D
:1010E000012F10D1234D244E297871B906F0F9FA59
:1010F0002F70236830601A6A22F00A021A621A6A94
:1011000042F002021A62BDE8F081002106F0E9FA1D
:101110001A4B186000232B7023681A6A22F00A0207
:101120001A621A6A1A623368984236BFC3F580336E
:10113000C01AC018124B1860FFF704FA0AA3D3E9CB
:101140000023FFF779FA00220E4BFFF775FAFFF73D
:101150004BFD0D4B1860FFF717FA02460B460B4884
:10116000BDE8F0412BF0DEBC9CC420B07268A13F0A
:1011700000000140C8020020C0020020C40200207C
:10118000D40200200000E03FDC0200203DEE020817
:1011900010B594B01022002102240AA82BF052FEB0
:1011A0001422002103A82BF04DFE1D4B192108A885
:1011B0001A6C42F080521A641B6C03F08053019346
:1011C000019B184B1A6842F440421A6001221B68C6
:1011D00003F440430293029B4FF48033CDE908238C
:1011E0004FF48003CDE90E434FF4D873CDE9124498
:1011F000CDE9101305F090FC05F032F90F23002023
:101200000721CDE903344FF4A053CDE905034FF492
:10121000805303A8079305F067FE14B010BD00BF0C
:1012200000380240007000402DE98048A1B0102233
:101230000021012513A800242BF004FE04F072F80D
:10124000C64B4FF01040ADF84C501694CDE9140346
:1012500013A804F085F8172313A88DF84D508DF8C6
:1012600054308DF85A5004F07BF8042004F068F8EC
:10127000BFF34F8FBFF36F8FB94AC2F85042BFF32D
:101280004F8FBFF36F8F536943F400335361BFF344
:101290004F8FBFF36F8FC2F88440BFF34F8FD2F8E8
:1012A000803043F6E070C3F3C901C3F34E335B01F2
:1012B00003EA0005894645EA8974B9F10109C2F8D3
:1012C0006042F8D2203B13F1200FF1D1BFF34F8FD2
:1012D000536943F480335361BFF34F8FBFF36F8F74
:1012E00003F086FF0024FFF753FF1422002113A808
:1012F0002BF0A8FD9B4B10219B481A6B0126102751
:101300004FF0030B42F010024FF480584FF0400AA8
:10131000964D1A631A6B02F010020192019A1A6B31
:1013200042F002021A631A6B02F002020292029A5F
:101330001A6B42F001021A631A6B02F00102039267
:10134000039A1A6B42F040021A631A6B02F04002D1
:101350000492049A1A6B42F400721A631A6B02F434
:1013600000720592059A1A6B42F008021A631A6B12
:1013700002F008020692069A1A6B42F480621A631F
:101380001A6B02F480620792079A1A6B42F02002ED
:101390001A631A6B02F020020892089A1A6B42F440
:1013A00080721A631A6B02F480720992099A1A6B9E
:1013B00042F080021A631A6B02F080020A920A9AC3
:1013C0001A6B42F004021A6300221B6B03F0040341
:1013D0000B930B9B04F016FB01220821644804F0D8
:1013E00011FB01224FF48051624804F00BFB0022F4
:1013F000C021614804F006FB002240215F4804F050
:1014000001FB00224FF400715D4804F0FBFA13A9C0
:101410005548CDE9154BCDE9137604F06BF9082357
:1014200013A95348CDE91336CDE9154404F062F908
:1014300013A95048CDE91386CDE9154404F05AF9B3
:10144000C02313A94C48CDE91336CDE9154B04F060
:1014500051F913A94948CDE913A6CDE9154B04F07C
:1014600049F94FF4007313A94548CDE91336CDE986
:10147000154404F03FF94348434B848003600662FF
:10148000C0E9054403F098FF404B2846C5E90A44EB
:10149000C5E90C44C5E90034C5E9024404F029F863
:1014A000314628463A4D04F0DDF84FF4C072394B0E
:1014B00013A9C5F814A04FF0020A2846AC60AC622C
:1014C000CDF864A0C5E906244FF40062C5E90034F4
:1014D000C5E9082804230722C5E90337CDE91532F9
:1014E000CDE913A2CDE917BA06F064F82A494FF600
:1014F000FF7228460094C1E90067C1E9026406F062
:1015000079F8304603F098FE23494FF6FF722846DB
:10151000C1E900A7C1E9026406F06CF81E4908237E
:101520004FF6FF722846C1E900B7C1E9023406F060
:1015300061F84FF40C721849042300922846009A6F
:101540004FF0180B8E60CA604FF6FF72C1E900378A
:1015500006F050F840F22B7128461FE01B000003F4
:1015600000ED00E0003802400004024004030020C7
:1015700000280240002002400008024000180240FB
:1015800000140240E00200200030024000B002409F
:101590008C040020400100A0AC020020954D06F014
:1015A00048F843F2D2014FF020426420116003F06A
:1015B00043FE914B914A28462C62C5E90032C5E9A9
:1015C0000246C5E90444C5E9064404F043FB21464C
:1015D000284604F061FD21462846894D04F082FD2D
:1015E0003422214613A82BF02DFC864A28213520D1
:1015F00040F2152C40F2352EAC862C6185F8364031
:10160000C5E900240922C5E905120B22C5E9070234
:1016100040F21B122846C5E909C240F21D12C5E975
:101620000244C5E90BE204F005FE4FF48872FF2086
:101630004FF4F0711E921394ADF87C408DF87E400B
:10164000CDE9162ACDE918044FF4806A0520224618
:10165000CDE91AA04FF040404FF6FF7ACDE91C01CA
:10166000CDE91414284613A904F0AFFE66480423FC
:10167000664A0462664DC0E902374FF4A063C0E9D0
:101680000026C0E904B3C0E9064405F003F84FF0B2
:10169000D70B03F02BFC03F06FFB5C2003F030FE54
:1016A00000F0DAFC3A4621460FA82BF0CBFB3A4675
:1016B000214613A80E94CDE90C442BF0C3FB554BE7
:1016C0002846AC60C5E9003BC5E903A4C5E905446B
:1016D00006F036F90FA92846CDF83C8006F06AFAE4
:1016E000284606F05DF90CA928460E94CDE90C4475
:1016F00006F0FAFA224613A92846474DCDE91346CB
:10170000CDE9154406F0B6F93A46214613A82BF068
:1017100099FB4FF0804328462C61AC611194C5E9D8
:10172000003BC5E90249CDE90F4406F009F913A9C8
:101730002846CDF84C8006F03DFA0FA928460F94B4
:10174000364D119406F0D0FA21463A4613A82BF0F4
:1017500079FB334A40F6DE43284611942C61AC6194
:10176000C5E90023CDE90F44C5E9024A06F0E8F8CF
:1017700013A92846CDF84C8006F01CFA0FA928467C
:101780000F94119406F0B0FA26484FF4E13326493D
:1017900004614462C0E900130C23C0E90244C0E9BB
:1017A0000534C0E9074406F05AFD00F081FC00F062
:1017B0007EFC06F00DFE1D4A21461D4806F042FE45
:1017C0001C4B1D4A214618601C4806F03BFE1C4B72
:1017D0001C4A214618601C4806F034FE1B4B1C4A6C
:1017E000214618601B4806F02DFE1B4B186006F0C2
:1017F00009FEFEE744030020005C004068474020EB
:10180000980300200068014040040020001000A060
:10181000C0040020000001400C05002058050020F5
:1018200000040040A405002000100140CCEE020896
:10183000D90F0008D8020020A8EE0208BF20000837
:10184000CC020020F0EE02084139000830060020EA
:1018500084EE0208D10F0008BC02002007B54FF645
:10186000FF730190012201A9034806F084FC01984E
:1018700003B05DF804FB00BFA40500200268044B20
:101880009A4204D1034B01221A7003F0C3BC704783
:10189000001000402C060020704700000D4B82B065
:1018A0000F216FF001001A6C42F080521A641A6C1A
:1018B00002F080520092009A5A6C42F480425A64BC
:1018C00000225B6C03F480430193019B02B003F0A0
:1018D000D7BC00BF00380240026882B0084B9A4271
:1018E0000BD1D3F8302803F5006342F480521A6319
:1018F0001B6B03F480530193019B02B0704700BF40
:10190000003002400E4B07B502689A4215D1A3F58C
:10191000F04305215A201A6B42F400021A63002298
:101920001B6B03F400030193019B03F0A9FC5A20F5
:1019300003B05DF804EB03F0D5BC03B05DF804FB25
:1019400000B0024010B5A8B004461422002102A83D
:101950002BF078FA8422002107A82BF073FA226872
:10196000174B9A422AD14FF4803307A8079305F00A
:1019700097FB08B1FFF790FF124C4FF4C0720121A2
:101980001148236B43F080032363236B03F0800330
:101990000093009B1223CDE902230323CDE9041316
:1019A000042302A9069303F0A5FE236C43F400036D
:1019B0002364236C03F400030193019B28B010BD42
:1019C000005C004000380240001C0240026808B57C
:1019D000094B9A420FD1094A80210948136C23F41C
:1019E0000003136403F068FF4FF480710448BDE8FE
:1019F000084003F061BF08BD005C004000380240B1
:101A0000001C024070B5ACB004461422002106A8A8
:101A10002BF018FA842200210BA82BF013FA22686D
:101A2000484B9A4240F08C800823052001240B93F8
:101A30004FF4C07310930223CDE911304FF40033FB
:101A40000BA8CDE9154305F02BFB08B1FFF724FFE8
:101A50003D4B002402250E265A6C06A93B4842F055
:101A600080625A645A6C02F080620092009A1A6B8B
:101A700042F010021A631A6B02F010020192019AEE
:101A80001A6B42F400721A631A6B02F4007202922B
:101A9000029A1A6B42F480621A631A6B02F4806233
:101AA0000392039A1A6B42F040021A631A6B02F017
:101AB00040020492049A1A6B42F480721A631B6B00
:101AC00003F480730593059B1023CDE90635CDE91A
:101AD00008440A9603F00EFE4EF6FF7306A91C4852
:101AE0000A96CDE90635CDE9084403F003FEF72355
:101AF00006A918480A96CDE90635CDE9084403F051
:101B0000F9FD4FF4805306A91348CDE906350923A2
:101B1000CDE908440A9303F0EDFD4FF4464306A9CE
:101B20000E480A96CDE90635CDE9084403F0E2FDFA
:101B300058202246052103F0A3FB582003F0D2FBD6
:101B40002CB070BD00680140003802400010024017
:101B500000240240002802400018024000200240F9
:101B6000142200212DE9F0418AB004460DEB020059
:101B70002BF068F922682C4B9A4251D12B4B02254D
:101B8000032409269A6B4FF0040805A9284842F05F
:101B9000020200279A639A6B02F002020192019AF4
:101BA0001A6B42F010021A631A6B02F010020292D2
:101BB000029A1A6B42F002021A631A6B02F00202D6
:101BC0000392039A1A6B42F008021A631B6B03F02C
:101BD00008030493049BCDE90585CDE9084603F08D
:101BE00089FD402305A91348CDE905350A23CDE930
:101BF0000774099303F07EFD05A90E480996CDE907
:101C00000585CDE9077403F075FD4FF4605305A910
:101C100009480996CDE90535CDE9077403F06AFD59
:101C20000AB0BDE8F08100BF001000A000380240FB
:101C30000010024000040240000C0240026808B597
:101C40000B4B9A4213D10B4A04210B48936B23F0A0
:101C50000203936303F030FE4421084803F02CFE96
:101C60004FF460510648BDE8084003F025BE08BDAA
:101C7000001000A0003802400010024000040240A2
:101C8000000C02401422002110B58AB004460DEB6E
:101C900002002BF0D7F82368264A934226D1264B20
:101CA00005A926485A6C42F001025A645A6C02F0A7
:101CB00001020192019A1A6B42F001021A634FF479
:101CC00080721B6B03F001030293029B0223CDE998
:101CD00005230123099303F00DFD1B20002205219C
:101CE00003F0CEFA1B2003F0FDFA0DE0B3F1804FB4
:101CF0000CD103F50E331A6C42F001021A641B6C0E
:101D000003F001030393039B0AB010BD0C4A9342F6
:101D1000FAD1094B1D2005211A6C42F002021A6407
:101D200000221B6C03F002030493049B03F0A8FA47
:101D30001D20D8E7000001400038024000000240AA
:101D400000040040F0B5ABB004461422002104A802
:101D50002BF078F88422002109A82BF073F8226870
:101D6000204B9A423CD1402309A8099305F098F9E9
:101D700008B1FFF791FD1C4B0227002603255A6C82
:101D8000072404A9194842F010025A645A6C02F060
:101D900010020192019A1A6B42F002021A631A6B46
:101DA00002F002020292029A1A6B42F001021A63D6
:101DB0001B6B089403F001030393039B8023CDE97D
:101DC0000665CDE9043703F095FC4FF4007304A9D0
:101DD00007480894CDE90437CDE9066503F08AFC8D
:101DE0002BB0F0BD0010014000380240000402405A
:101DF00000000240F0B5002387B00393294B1E6812
:101E0000002E4DD10122022703250C241A6001A9BE
:101E1000254B26489A6B42F001029A639B6B03F0B4
:101E200001030093009B4FF68373CDE90454CDE981
:101E3000013703F05FFC48F2331301A91C480594F5
:101E4000CDE90137CDE9036503F054FC4CF203738F
:101E500001A918480594CDE90137CDE9036503F0E0
:101E600049FC4FF63F0301A913480594CDE901371A
:101E7000CDE9036503F03EFC282301A90F48059432
:101E8000CDE90137CDE9036503F034FC082301A94E
:101E90000B480594CDE90137CDE9036503F02AFC31
:101EA00007B0F0BD340600200038024000100240A8
:101EB00000180240000C024000140240001C0240C6
:101EC00000080240214B1A6C42F0100270B51A64EF
:101ED00088B01B6C054601A903A803F01003029308
:101EE000029B05F0BFF8069B4BBB05F09BF8184E14
:101EF000184B336040F2E733F360174BB0FBF3F35A
:101F0000013B3046736000233361B360B36105F079
:101F100017FD044680B9304605F0A4FB044658B9C5
:101F2000362003F0DFF90F2D0DD822462946362042
:101F300003F0A6F9094B1D60204608B070BD05F0FE
:101F400071F84000D3E70124F6E700BF00380240F3
:101F5000380600200010004040420F003C000020E6
:101F60007047FEE7FEE7FEE7FEE77047014805F031
:101F7000D1BB00BFC0040020014805F0CBBB00BFAF
:101F800058050020014805F0C5BB00BF38060020F9
:101F9000014804F0BDB900BF98030020014803F0D8
:101FA000D6BA00BF040300200120704708B52BF00B
:101FB00001F8162303604FF0FF3008BD08B52AF082
:101FC000F9FF16230360FEE770B50D4614460E4672
:101FD000731B9C4201DC204670BDAFF3008006F805
:101FE000010BF5E770B50D4614460E46731B9C4277
:101FF00001DC204670BD16F8010BFFF72FFCF5E75A
:102000004FF0FF3070474FF4005300204B60704793
:1020100001207047002070470B4A0346116810B535
:1020200009B90A491160106809490A4C0344091B9F
:102030008B4206D92AF0BEFF0C2303604FF0FF301D
:1020400010BD1360FCE700BF84060020E864012097
:1020500000000520000A000070470000DFF834D0BF
:10206000002103E00C4B5B58435004310B480C4BF0
:1020700042189A42F6D30B4A02E0002342F8043B8E
:10208000094B9A42F9D302F0C9FF2AF099FFFFF7F2
:10209000CBF8704700000520903C030800000020AA
:1020A0009002002090020020E8640120FEE77047C3
:1020B00008B501F0F7F8BDE8084001F083B801F079
:1020C000F3B8406870474160704700004FF0E0226D
:1020D000D2F8FC3D43F08073C2F8FC3D054B064A44
:1020E000D3F8B01F0A43C3F8B02F1A6842F00102B8
:1020F0001A607047001000E055CEACC5511A01EBD4
:102100005301B1FBF3F07047014B5868704700BFB3
:10211000001000E0704710B504460C2129F0C7FDFF
:10212000204610BD036810B51B69044631B19847BD
:10213000A26863689B1A1844606010BD9847A0604D
:10214000FBE70000024B7020024A1360DB6818476F
:102150001000002088060020704710B504460421B6
:1021600029F0A5FD204610BD73B50E4E0D46144650
:10217000336813B9002002B070BD1B697020984706
:102180000028F7D03368702001AA0DF106015B69C1
:102190009847BDF8043001202B60BDF8063023605D
:1021A000E9E700BF880600207FB501238DF81720DE
:1021B0004FF47A72CDE901320DF1170200920A460E
:1021C0000146054803F0B0FD10B1034803F093FD4C
:1021D00007B05DF804FB00BF440300207FB5002377
:1021E0000A464FF47A718DF817300123CDE9013199
:1021F0000DF1170100910146054803F06FFE10B183
:10220000034803F078FD9DF8170007B05DF804FB64
:1022100044030020032823D8DFE800F0020B131A40
:10222000104B102110481A68B2FA82F2520903F0DA
:10223000E9BB0C4B40215A68B2FA82F252090B48B2
:10224000F5E7084B80219A68B2FA82F25209F6E764
:10225000044B40210648DA68B2FA82F25209E6E7F6
:10226000704700BF8C0600200004024000080240B6
:1022700000180240032823D8DFE800F0020B131AED
:10228000104B102110481A68003A18BF012203F0C1
:10229000B9BB0C4B40215A68003A18BF01220B48C9
:1022A000F5E7084B80219A68003A18BF0122F6E74B
:1022B000044B40210648DA68003A18BF0122E6E7DD
:1022C000704700BF8C060020000402400008024056
:1022D0000018024003280FD8DFE800F00206090BBF
:1022E0001021064803F093BB40210548FAE78021FE
:1022F000FBE740210348F5E7704700BF00040240B8
:10230000000802400018024008B5032813D8DFE88F
:1023100000F0020A0D0F1021084803F06DFB431E68
:102320005842584108BD40210548F6E78021FBE7A7
:1023300040210448F1E70020F1E700BF000402401B
:10234000000802400018024070B5084D0024012624
:10235000E0B2FFF7D9FF18B12B68012B18BF2E6030
:1023600001340435052CF3D170BD00BF8C0600206C
:10237000012380F8781080F879307047002070478A
:1023800041640039024B18BF01211970704700BF2A
:10239000B358012000207047836B0BB108461847E3
:1023A00070474FF6FF707047406803689B69184795
:1023B0007047000038B5044601F080F808492368EA
:1023C0002046084DD3F88C3098470023284684F8DF
:1023D0004A30FFF77BFE0123256184F8703038BD59
:1023E000000000C09C06002001F01EB801F022B8D9
:1023F00070B501F08DF810490023C1F88430BFF3A7
:102400004F8FD1F8803043F6E074C3F3C900C3F3B3
:102410004E335B0103EA0406024646EA8275013A3E
:10242000C1F87452F9D2203B13F1200FF2D1BFF35F
:102430004F8FBFF36F8F70BD00ED00E001F06AB801
:1024400000F0CEBF01F084B901F08CB900F0D2BF2A
:1024500010B5044616F0D2FB23682046D3F8AC3002
:10246000BDE81040184715F027BE10B504467C2182
:1024700029F01DFC204610BD90F87A301BB1406851
:1024800003681B68184718467047000090F834101E
:102490000D4B10B590F878401A788C4209D03AB9B3
:1024A0000A490B4A08881488108001220C801A708F
:1024B00010BD002AFCD0064A0449148808880C8004
:1024C00010800022F3E700BFAC580120AA58012079
:1024D000A858012070B50D46194635B9094B40F290
:1024E000D221094A094829F0F5FCC0E90F52003A07
:1024F000074B18BF01221A700368BDE87040D3F87B
:102500008C30184754EF02088CEF0208DAEF02080B
:10251000B258012008B5094B1B888B4203D8084BE1
:102520001B88934205D9074B9E21074A074829F08B
:10253000D1FC074B1980074B1A8008BDA858012011
:10254000AA5801201FF0020882F00208DAEF020800
:10255000AE580120B0580120014608B5034B186859
:1025600001B1012116F064FB012008BDB45801201F
:10257000034B00225A609A60024A1A60704700BFFB
:102580009C0600201CEF02080121002208B5084625
:1025900006F04AF80A4B186028B90A4B28210A4A63
:1025A0000A4829F097FC00220421012006F002F9D4
:1025B000074B186018B9074B2C21034AF0E708BDF8
:1025C000AC060020A0F10208E9F1020818F20208A6
:1025D000A806002067F20208024B4FF0FF3118688E
:1025E00006F078B8AC060020014B186806F0ACB8CD
:1025F000AC060020024B0021186806F06BB800BF43
:10260000AC060020FFF7F0BF0023034803491A4639
:10261000006806F015B900BFA806002004000020DD
:1026200013B50023074C01A91A46206806F04AF9A1
:102630004FF0FF33002201A9206806F043F902B0F1
:1026400010BD00BFA806002003685B6C184701207E
:10265000704703689B6A18470D4B82B01A6B42F4AF
:1026600000021A631A6B02F400020192019A1A69BD
:1026700042F400021A611A6922F400021A61054B41
:10268000054A1A614FF08062044B9A6002B07047AD
:102690000038024004030020E126000800E100E0C9
:1026A00040F2EF3070470000054B4FF0806203604E
:1026B000044BC3F88820BFF34F8FBFF36F8F704771
:1026C00008F4020800E100E010B504464FF45A6136
:1026D000FFF7EAFF204629F0EAFA204610BD000085
:1026E000024B1B68586803685B691847B45801209F
:1026F00070B504460A4B0C30002625466022606007
:102700002672667245F8203B294616F0CDFB04F58B
:102710005A63EE602435AB42FBD1204670BD00BF4A
:1027200008F4020808B50B290BD8DFE801F01206FF
:10273000100A0A0A0A0808080808012008BD05202E
:10274000FCE7054B6521054A054829F0C3FB00203D
:10275000F4E70220F2E700BFA9F20208C4F202087F
:102760000EF3020808B50A2909D8DFE801F01006BF
:102770000E080808080606060600012008BD054BDD
:102780008621054A054829F0A5FB0020F6E702202E
:10279000F4E700BFA9F202085BF302080EF3020897
:1027A0002DE9F84391F81D800C4607464146FFF796
:1027B000B9FF94F81E90054638464946FFF7B2FF28
:1027C000494606463846FFF7CDFFA18A628B434B48
:1027D000521A1A649A61228B521A1A61E28A586359
:1027E00042EA014220695A646268D863DA60276865
:1027F000802F28D0227F0FD8202F65D0402F63D084
:10280000042F1AD045EA0265344BC84545F400351B
:10281000DD615FD0324A44E0B7F5807F04D0B7F580
:10282000007FEFD12F4900E02F4941EA0262DA61CF
:10283000E2681A625E62586132E045EA026242F47E
:102840000032DA61F6E7A7683A1DDA62217F3A784A
:1028500045EA016545F40035DD615E62586142B1CB
:10286000012A21D0214B4FF48871214A214829F0B7
:1028700031FBDA69798822F47F42013922F01002B3
:1028800042EA01220121DA61144BDA6942F02002A6
:10289000DA61DA699206FCD410229A600029B9D074
:1028A000154A1A60BDE8F883DA69FF39788822F49E
:1028B0007F4218BF0121013822F0100242EA0022B3
:1028C00042F01002DA61DFE745EA0262034B42F4AC
:1028D0000032B6E740F20122E3E700BF00B0024059
:1028E00001020100090002000A000200A6F302082A
:1028F000C0F302080EF302080102020038B50C46CC
:10290000897FFFF72FFF174BA58AE28A586342EAB7
:10291000054221695A64628BD963521B1A64256887
:10292000082D0ED19A611A6158620F4A207F42EA3F
:102930000062DA61E2681A620C4A5961D9601A6071
:1029400038BD0022D8611A61E1680A0A4809C1F35A
:10295000C40102F4784200F4FC6002430A439A6323
:10296000034AECE700B00240090001000102020046
:10297000010203004069704790F844007047036B00
:1029800023B9C06A003818BF012070470120704782
:1029900080687047043010B50C460FC884E80F00FB
:1029A00010BD704708B5034A40F21221024B03489C
:1029B00029F090FA50F402087F0E0308ABF40208E5
:1029C00010B50446482129F072F9204610BD0000D8
:1029D0002DE9F0431C46436BADF51F7D05460E46C1
:1029E0001746002B37D0002203A8DFF8A890CDE9C6
:1029F00001320EF09BF84FF4F4725021249024A879
:102A000007F0E3FF3A46314624A808F05FFF0121B2
:102A100024A808F0DDF8022324A88DF8D83008F0A7
:102A20007BF9BDF898322B9ABDF89C629342A89F1F
:102A300028BF1346419A964203EB4308A7EB43078E
:102A400028BF1646479B9E4209D824A808F0E2F802
:102A500024A808F007F80DF51F7DBDE8F0830122DA
:102A600001A924A808F0A1F96B6B03EB08009842B8
:102A700001D83C44E6E759789A78C90009EA02226D
:102A800001F4FC610A4313F8031B42EAD10224F863
:102A9000022BECE700F8FFFF0A4A02600022C0E9BF
:102AA0000522C0E90722C0E90922C0E90B22C0E9DA
:102AB0000D12C0E90F2280F84420C0E90322C0E9CA
:102AC000012270478CF7020810B40C4611461A46D2
:102AD000036B3BB1036C806BE41A20445DF8044B3C
:102AE0002AF0B8B9C06AF8E7036B10B573B1036C8C
:102AF000826BC91A5318525C98785C780004DB78B2
:102B000040EA0420104340EA036010BDC36A5858ED
:102B1000FBE7036B43B1036CC91A836B5A18585C0B
:102B2000527840EA02207047C36A585A7047000042
:102B300070B50446006B0D461646D8B1E36B934260
:102B400008D209230D4A65210D4884F844300D4B05
:102B500029F0C0F90368DB689847206B3246A16B07
:102B600003681B69984710B90D2384F84430A06BA3
:102B7000256470BDE06A0844FBE700BF17F5020852
:102B8000ABF4020804F502082DE9F8434369044652
:102B90002BB9234BAA21234A234829F09BF9082269
:102BA0008169FFF7C5FFA16943F2300646F2643739
:102BB00004312046FFF798FFA3691844A36A00F187
:102BC00008029A4206D3012300206361236AA361AD
:102BD000BDE8F883636909300822013320F0010160
:102BE00020466361A161FFF7A3FFD4F81890204647
:102BF0004946FFF78EFF09F1020180462046FFF7A4
:102C000088FF09F1040105462046FFF76DFFB04536
:102C1000D2D1BD42D0D10028CED00120D8E700BF0C
:102C200059F50208A2F50208ABF402082DE9F04FAD
:102C30000446ADF51F7D8A461646816908229846EE
:102C4000FFF776FFA7692046391DFFF74DFF07F113
:102C50000801024605462046FFF76AFF636B0746F8
:102C600033B93C4B40F2AB113B4A3C4829F032F9B6
:102C7000002203A8CDE901320DF058FF4FF4F472A1
:102C80005021249024A807F0A0FE2A46394624A803
:102C900008F01CFE012124A807F09AFF022324A8B3
:102CA0008DF8D83008F038F8BAF90250479BAB429B
:102CB00029D3BAF900904FEA4808BAF804702B9B60
:102CC00008FB05664F44BAF80250DFF894B03FB2F3
:102CD0009F4228BF1F46BAF8063009EB490A1D4437
:102CE000419B2DB29D4228BF1D46479BAB4210D34E
:102CF00024A807F08FFF24A807F0B4FE01200DF5EB
:102D00001F7DBDE8F08F012201A924A808F04DF82D
:102D1000CCE7012201A924A808F047F8626B4946D4
:102D20005244B94202F1030201D34644DDE712F8EE
:102D3000020C12F8013CC0000BEA032300F4FC6013
:102D4000034312F8030C43EAD00326F81130013193
:102D5000E7E700BFD5F502082BF60208ABF402083E
:102D600000F8FFFF0129036838BF0121DB6A70B555
:102D70000D4604469847A84204D223682046DB6AE1
:102D8000984705466B1EE6691022204606EB03169F
:102D900006F10801FFF7CCFE06F110012046FFF70F
:102DA000A3FE236A043B0344C4E9055370BD00003D
:102DB0002DE9F341002104464822816180F8441046
:102DC000FFF7B6FEA7690423634A39462046FFF79A
:102DD0007BFE40B10323614AF22184F84430604B0A
:102DE000604829F077F807F1080104235E4A20467D
:102DF000A161FFF769FE30B10423584AFA2184F833
:102E000044305A4BECE707F10C010423584A2046A2
:102E1000A161FFF759FE064638B105234F4A40F23B
:102E2000011184F84430534BDAE707F110012046D2
:102E3000FFF75AFE054620B94F4B40F20711474AAB
:102E4000CEE707F1140804234C4A20464146FFF719
:102E50003BFE00284BD0062384F844300423484A24
:102E600007F118012046FFF72FFE002841D0072365
:102E700084F844304544434F0C2220462946FFF74E
:102E800057FE05F1080604233A4620463146FFF76F
:102E90001BFE94F8443000284AD0002B4AD1A36A84
:102EA000291DAB424AD805F10C03291D2046A36118
:102EB0000191FFF719FE3044019960622046FFF747
:102EC00013FE0644042220463146FFF731FE042358
:102ED0002D4A31462046FFF7F7FD002839D101235E
:102EE000E6616361A369236202B0BDE8F081012657
:102EF000B4E7002EBED007F120012046FFF7F4FD15
:102F00004FF47A7307F13001B0FBF3F060602046B4
:102F1000FFF7EAFD07F14001A0602046FFF7E4FD5E
:102F200007F14401E0602046FFF7DEFD2061A1E7E4
:102F3000002BB8D00A2384F84430D5E72046FFF7A9
:102F4000D3FD08300C22054420462946FFF7F0FD4A
:102F500097E70B23EFE700BF85F60208A3F6020808
:102F60008AF60208ABF40208D0F60208D5F6020889
:102F7000EDF60208F2F6020808F7020814F7020854
:102F800019F702081EF7020823F70208C0E90A2110
:102F900000220263FFF70CBF10B500230446084669
:102FA000E3620B6821639B689847A0622046BDE8F6
:102FB0001040FFF7FDBEF0B4BDF81050BDF814602E
:102FC0002AB123B1CDE90456F0BCFFF701BDF0BC36
:102FD000704700002DE9F04F9946436985B00446DB
:102FE0000F4690462BB92A4B77212A4A2A4828F0C7
:102FF00071FF08228169FFF79BFDA66920463146D3
:10300000FFF787FDB11C83462046FFF782FD311D87
:1030100082462046FFF768FD06F10801A36A0546CF
:1030200042189A4227D243F230039B4517D146F209
:1030300064339A4513D190B10246A1612046FFF74F
:1030400077FD0E9B01462A462046CDF80080CDE94B
:1030500001933B46FFF7AFFF636901336361A369E7
:103060002B448DB1A361A369626A013323F001038C
:103070009342A3610AD10120236A6061A36180F0B9
:10308000010005B0BDE8F08F0833EBE70020F6E75C
:1030900059F5020828F70208ABF40208012070472E
:1030A0000C2070470C2303FB0100083070470C23F1
:1030B00003FB010008307047012070474FF4BA60ED
:1030C00070474FF4BA6303FB0100083070474FF4B8
:1030D000BA6303FB010008307047012070471020DD
:1030E000704700EB01100830704700EB011008300A
:1030F0007047084600F046BE034B10B50446036017
:1031000014F032FD204610BD34F8020810B5044614
:10311000FFF7F2FF1421204628F0C9FD204610BD1C
:10312000034B10B50446036014F01EFD204610BD8D
:1031300000F8020810B50446FFF7F2FF4FF4BB6138
:10314000204628F0B4FD204610BD0000034B10B50A
:103150000446036014F008FD204610BDCCF70208B9
:1031600010B50446FFF7F2FF1821204628F09FFD16
:10317000204610BD084B10B50446036000F2046001
:10318000FFF7BAFF04F12C00FFF7CAFF04F11400A7
:10319000FFF7DCFF204610BD68F8020808B50248BA
:1031A000FFF7E8FF08BD00BFB406002010B50446D5
:1031B000FFF7E0FF4FF4EF61204628F078FD20464E
:1031C00010BD00002DE9F34100F05CFC0024054631
:1031D00000F05CFC234601462246284600941BF082
:1031E00003F9254B254A2046254D1A6001F0FEFBC8
:1031F00024481BF061F82B68BFF35B8FDB0735D4E5
:10320000284628F056FD88B31F4C204B04F21C665C
:1032100004F1140004F12C0804F2046723606060D8
:10322000C4F80880E760266114F0A0FC184B404603
:10323000636114F09BFC174B3846E36214F096FC74
:10324000154B04F5C360C4F8043601F051FC224666
:1032500004F5C361304601F041FC304600F092FDB8
:103260000E4828F055FE284628F02FFD0C4802B0E5
:10327000BDE8F041FFF79EB8105901204C1C00201A
:10328000B006002008000020B406002068F80208FC
:10329000CCF7020800F8020834F802089D31000853
:1032A000D01B002070470000014814F06EBF00BF23
:1032B000D01B002070B5224E224B234C3046234DAC
:1032C0002360FFF715FA28461FF068FB204B002209
:1032D0004FF480711F481A8683F858205A6683F885
:1032E00070205A67DC60C3E912121B49C3E91A1245
:1032F0001A4999671A490B604FF4F0710180194817
:1033000001804FF488711848C3E90422C3E90622FA
:10331000C3E90822C3E90A22C3E90E22C3E9102245
:10332000C3E91422C3E91722C3E9016501800F48EC
:1033300083F8342001800E490A700E4A1A6070BD6D
:10334000300E002044EF02082C0E0020501C0020FC
:10335000D01B0020A858012001000001000001013D
:10336000B4580120AE580120AA580120B0580120BD
:10337000AC580120D0F002080148FFF795B900BF12
:10338000300E00200020704781807047C180704758
:10339000018170474181704770477047704770479F
:1033A000704710B4C4880368121B84885B6D091BC6
:1033B00012B25DF8044B09B218474FF6FF738381D0
:1033C0004FF0FF3303621368C3611060704790F8D9
:1033D00025201AB190F8242002B11860704700002F
:1033E000034B902283F85A2383F85823704700BF79
:1033F00000E100E0094A0A49D3680A48C3F30A0316
:10340000013B9BB20B801169C1F30A0101390180B4
:103410001364536B43F0010353637047006801402A
:103420002E1D00202C1D0020014BD3F8AC0070474E
:1034300000680140024B0122C3F8AC105A62704789
:1034400000680140124A5369DB0370B51ED50023A2
:10345000C2F88430BFF34F8FD2F8803043F6E07467
:10346000C3F3C900C3F34E335B0103EA040601460C
:1034700046EA81750139C2F87452F9D2203B13F142
:10348000200FF2D1BFF34F8FBFF36F8F70BD00BF1E
:1034900000ED00E070473823002201FB0333C254E3
:1034A00090F838300BB9036C83647047704710B5DF
:1034B0000446582128F0FBFB204610BD38B50446D1
:1034C00014F04FFE23685D6E17F030FF0146204672
:1034D000A8472368084A2046D3F888500023A2F55D
:1034E0007F31A847054B064A5A60064A1A649A6417
:1034F0004FF4FF225A6438BD00F807C0D41C0020E6
:10350000B024002000F40BC014F012BE14F01CBE56
:1035100014F0D8BD14F047BF90F8252012B103680D
:103520005B6918477047000008B531B1044B40F2A1
:103530009711044A044828F0CDFC90F8390008BDE2
:1035400074F8020888F8020815FA020810B531B1BB
:10355000064B40F29111064A064828F0BBFC406831
:1035600011460368BDE810401B6B184774F8020849
:1035700057FA020815FA020808B529B1034B7A2157
:10358000034A044828F0A6FC006908BD74F8020844
:1035900008FC020815FA020808B529B1054B832179
:1035A000054A064828F096FC41618160C0E9063270
:1035B00008BD00BF74F80208C0FD020815FA020831
:1035C00010B5044629B1274BA421274A274828F0E3
:1035D00081FC052A34D8DFE802F003292F34393E74
:1035E000406803681B69984750B34FF0FF31606D26
:1035F00004F0C0FF0023012294F83E1084F83B3011
:1036000084F83920A360636101B1226284F83E30FE
:103610006362E36A2BB90123206D84F83A3005F028
:1036200093F8606DBDE8104004F0D4BF002380F82B
:10363000393084F83E3003E0036200238360436145
:1036400010BD0362002383604361F2E7002380F82A
:1036500039300123EDE7003B18BF012380F83D30EE
:10366000EEE700BF74F802087FFF020815FA0208AF
:1036700070B50446164629B1314BE721314A32482C
:1036800028F028FC90F8393033B1304B1B6893F8A0
:103690006B20436913444361E36A002B4DD0E16919
:1036A000D4E905325343A2684A43934220D2236AA5
:1036B000002B42D04FF0FF31606D04F05BFF236AB6
:1036C0000BB10023E362E36AFBB90125606D04F0EE
:1036D00081FF94F839300BB9236A3BB1E36A2BB907
:1036E0000123206D84F83A3005F02EF8284670BD8D
:1036F00094F84C000028DDD09B1AB3FBF1F29942FC
:1037000098BF02F1FF326262D4E7002294F83C5085
:10371000A3623046E262E2682261A2680132A260DE
:10372000336333685B699847002DCED194F83D3000
:10373000002BCBD184F83950C8E70125C9E700BF79
:1037400074F802085601030815FA0208B45801205B
:10375000034B4FF080629A604FF080729A6070471E
:1037600000E100E0084B4FF08062C3F88820BFF30F
:103770004F8FBFF36F8F4FF08072C3F88820BFF375
:103780004F8FBFF36F8F704700E100E038B50346FD
:1037900090F8380038BB01229860D8609A634FF4E3
:1037A000807258619A874FF4F0729861D8611862FC
:1037B00058629862D8621863586383F83E00CA86DC
:1037C0004FF4887281F834000A8708639A6C186194
:1037D00002F5FF24D3E9101529448C420AD9084B7D
:1037E0005821084A03E0084B40F2F511074A0848FF
:1037F00028F070FB1A6302F57F329C645A6338BD6F
:10380000B4040308F4040308FA0203082A030308B3
:1038100015FA020810B5144C236823B3134B144A4D
:103820001B6C11888B4213D1124B198802F0FAFDE0
:10383000226892F86A30013382F86A30FEF7E4FEBB
:10384000206815F0DBF90020BDE81040FEF7E2BC6F
:1038500002F0E8FD206803681B6A98470020BDE875
:103860001040FEF707BD10BDB458012000680140AC
:103870002E1D00202C1D00202DE9F74304464FF497
:10388000707894F83A304FF0FF31002B31D0606DF2
:1038900004F070FE276BA36ABB4200D1676B266AF7
:1038A000656856B32B68314628465B6A9847002303
:1038B000236284F83B30606D04F08CFE2B684FF47B
:1038C000F0723946CDF8008028465E694FF488735F
:1038D000B0474FF0FF310646606D04F04BFE94F8A0
:1038E0003B30E3B1002384F83B30606D04F072FE9E
:1038F000C7E7206D04F0EEFEC3E7636A002BDAD061
:103900002B682846D3E909939847616A0144284601
:10391000C847A368626A66621344A360CBE7E762A4
:103920005EB12B6828469B6A984701380023E06007
:1039300084F83C6084F83A30D7E70120F6E70000CD
:10394000014808B5FFF798FFD41C00200368042243
:1039500070B504465E6A00230D46B0474FF0FF3154
:10396000606D04F007FE382303FB0542D16A09B1FC
:103970000021D16203FB0545012385F83B3000237C
:1039800085F83930606DBDE8704004F023BE38B56D
:1039900000EB810304460D46114658680368DB6856
:1039A000984729462046FFF7D1FF38BD70B50D4630
:1039B0001146044600EB85025068026896681A4674
:1039C000B04729462046FFF7C1FF70BD38B51649FC
:1039D00000251648FFF760F8154C164B01202A46C3
:1039E000294623604FF48073A564A38784F84C00B4
:1039F00084F83E50C4E91055C4E91455C4E9015592
:103A0000C4E90355C4E90555C4E90755C4E9095596
:103A1000C4E90B55C4E90D5504F006FE206528469F
:103A200004F064FD606538BD301D0020B024002026
:103A3000D41C0020A4060308704708B5042918D830
:103A4000DFE801F003070B0F130001F01BF800681B
:103A500008BD01F017F84068FAE701F013F8806834
:103A6000F6E701F00FF8C068F2E701F00BF8006923
:103A7000EEE70020ECE710B50446042128F017F922
:103A8000204610BD00487047EC060308032070472D
:103A900013B5002451B1036801AA01948DF80340C5
:103AA0009C680DF10303A04702B010BD0846FBE778
:103AB000C0897047008A7047C08870478088704707
:103AC000807A00F07F007047807AC00970477047A5
:103AD00010B50446082128F0EAF8204610BD7047CA
:103AE000704700F598730868496803C370477047CA
:103AF0007047416070477047064BC0F84801C0F8F6
:103B00004C310023C0F8503100F5A273C0F84031A9
:103B1000704700BFBD3B0008012303727047704728
:103B2000704710B441680346C2689B68541001EBAB
:103B30006200D20748BF0A595DF8044B48BFD3580A
:103B4000184743682BB183682BB9C06800F00100A7
:103B50007047184670470120704710B504460C2185
:103B600028F0A5F8204610BD10B50446102128F015
:103B70009EF8204610BD10B504464FF4AE7128F0F3
:103B800096F8204610BD10B517F0D0FB0368BDE8CD
:103B90001040DB6B184710B50446D0F8400158B10F
:103BA0000368DB68984738B1D4F8400103689B6824
:103BB00098470023C4F8403110BD00002DE9F14FB3
:103BC000D0E9555A0746A86803681B6A9847B0F5BC
:103BD000BA6F05D2454BA321454A464828F07AF9E9
:103BE000686803681B6A98470F2803D8424BA421D2
:103BF0003F4AF2E7E86803681B6A98470B2803D836
:103C00003E4BA5213A4AE8E7DFF8F89017F08EFB23
:103C1000043017F0B0FBD9F8000010B10368DB687E
:103C20009847D9F8000010B103681B689847DFF87F
:103C3000D880D8F8000010B103685B699847D7F8BE
:103C40003C0110B103685B689847D8F8000010B1D8
:103C500003681B689847D7F83C0110B103689B685C
:103C60009847E86800214FF0000B03685B6A9847AB
:103C7000234B0446C0F804B00360594680F808B0EE
:103C8000A86803685B6A9847064600F073FF686897
:103C9000594603685B6A98470546314600F03AFF8B
:103CA000C9F80040C7F83C51C8F80060E5B12B1DC9
:103CB000CAF8003030463368C5F808A0DB68F56301
:103CC00098472B6828461B6898472146304618F0CD
:103CD000F9FF236820461B699847236820465B69E3
:103CE00001B0BDE8F04F18472B46E1E7380703085D
:103CF000C6070308CA08030811090308B409030822
:103D0000CC0A0308F4580120F0580120044B1B682A
:103D100093F858200AB1D86C00B99868704700BF72
:103D2000B4580120F8B5044617460E4617F0C4FBF8
:103D3000104B00251C6029460F4B23600F4BC4E934
:103D400051350F4B1868C4E953550368C4E94F5502
:103D50009B68C4E955769847284600F047FEFFF770
:103D6000D5FF20F04AFCFFF7D1FF20F0C1FC204630
:103D7000F8BD00BF00590120780A0308600A030853
:103D8000B4580120064BC0F84801C0F84C3100235C
:103D9000C0F8503100F5A273C0F84031704700BF41
:103DA000BD3B0008406A7047806A704770478B8847
:103DB000C069DB0A0A6850F823001044704710B548
:103DC000C2B1137BB3B1547BD27A240204F4E06411
:103DD0001443026A98B202EB840213888B4202D128
:103DE00092F9020010BD05D80138043280B20028D3
:103DF000F3D1F7E70020F5E710B504462C2127F0B2
:103E000056FF204610BD000030B58BB00446BDF80B
:103E100060500895BDF85C5007959DF85050069588
:103E20009DF84C5005959DF8485004959DF84450D8
:103E300003959DF8405002959DF83C500195BDF8C2
:103E40003850009518F098FB064B20462360159BD0
:103E5000E361169B2362199B63621A9BA3620BB0FA
:103E600030BD00BFF00A0308806A70477047704792
:103E700070477047704730B585B0036804460181CC
:103E80006D460146D3F884303C342846984795E87F
:103E9000070084E8070005B030BD30B585B0036881
:103EA000044641816D460146D3F884303C342846AF
:103EB000984795E8070084E8070005B030BD002268
:103EC000028042808280C280704780F8361070473E
:103ED000036870B504461B6B154698472368204657
:103EE00029465B6EBDE87040184700207047806C23
:103EF000704770477047704770477047704770470A
:103F000000F19803994270B504460D4602D103684A
:103F10001B6B984704F588739D4203D123682046A4
:103F20005B6B984704F5C4739D4203D12368204618
:103F30009B6B984704F541739D4205D12368204649
:103F4000DB6BBDE87040184770BD90F82C304BB16A
:103F500000F16C021268C2653BB100F174031B688A
:103F60000366704700F16802F4E700F17003F6E7BA
:103F700070477047704730B444680346C2689B6816
:103F8000551004EB6200D20748BF625930BC48BFED
:103F9000D358184743682BB183682BB9C06800F029
:103FA00001007047184670470120704790F82D3087
:103FB00080F85A30704710B504464C2127F077FE40
:103FC000204610BD10B50446782127F070FE20462B
:103FD00010BD10B50446102127F069FE204610BD23
:103FE00010B504464FF4946127F061FE204610BDE1
:103FF00008B5FFF791FA08BD10B50446006B50B143
:104000000368DB68984730B1206B21460368BDE840
:1040100010409B68184710BD0B7970B504460D46DB
:1040200090F82C609BB98EB9B3FA83F320465B09F4
:1040300084F82C302368D3F88C30984723682046C6
:104040005B69984716B12B79012B03D070BD002E08
:10405000FCD0E9E723682046D3F88830BDE87040FB
:1040600018470000036870B55E6B0446114B8DB2B3
:104070001B682BB9104B6C21104A114827F02AFFFE
:104080001049828D0988914203D80F4B6D210B4A4C
:10409000F3E713F812200D4B1B6853F82200036856
:1040A0001B6B9847281A334601B22046BDE8704082
:1040B000184700BF04590120480B03088A0B030866
:1040C000C50B0308085901200C0C03080C590120EA
:1040D00000224FF0FF318260C0E900217047036881
:1040E00070B504461B6B1546984723682046294641
:1040F0005B6BBDE87040184770B504461D46BDF9BE
:104100001060FFF7ECFF2368294620469B6B984719
:10411000236831462046DB6BBDE87040184700003D
:104120000022C0E90122C0E90322C0E90522C0E95A
:1041300007224FF480728284014A0260704700BFF8
:104140008C0C030810B504462622002128F07AFEC4
:104150002046FFF7E5FF044B20462360FF2384F849
:1041600026300023A36210BD6833030838B5044627
:104170000D462622002128F065FE2046FFF7D0FFDD
:10418000064B2046294623602B88E384FF2384F8CE
:10419000283015F07FFB204638BD00BF38340308B7
:1041A00010B504462622002128F04CFE2046FFF7D9
:1041B000B7FF0A4B4FF47F0220462360084BA362EF
:1041C0004FF6FF73A3850023C4E90C324FF0FF3292
:1041D0002387E363C4E9102310BD00BFD83203086E
:1041E000300703084FF47F4370B5838540F2011315
:1041F0000025064683840446114B85620563C0E9A9
:104200000155C0E90355C0E90555C0E9075546F811
:10421000343B3046FFF796FF0A4B2A462946304684
:1042200063632566A4F86450C4E91A55C4E91C55B3
:10423000FFF755FF2046314613F0AAFC204670BD1B
:10424000840D0308D033030810B40367019B5DF8A5
:10425000044B43670368C0E91A12D3F88C3018473F
:104260002DE9F04F044600254FF6FF76274604F16E
:104270006C0B04F5887904F5C47804F55F7A2DEDAC
:10428000068B8BB018F072FBE14BE56347F8403BBF
:104290003846FFF757FF08A95846ADF82060FFF7EA
:1042A00065FF04F19803184609EE903AFFF79AFF6C
:1042B0004846FFF797FF4046FFF794FF04F5007369
:1042C00008A9ADF8206018460AEE103AFFF74EFF35
:1042D00004F50B73261D184608EE103AFFF760FF31
:1042E00004F51D73184608EE903AFFF759FF04F5E0
:1042F0002F73184609EE103AFFF752FF04F5417389
:1043000018460AEE903AFFF76DFF5046FFF748FF58
:10431000C04B2A463846C4F87C332946BE4BC4F805
:10432000C453C4F89034BD4BC4F89444C4F89834D2
:104330004FF48873C4F89C5400934FF4F073FFF764
:10434000DBFE4FF07F4339463046A36613F020FC76
:1043500058462A462946FFF7C2FE08AA4FF0020334
:1043600058461146AE4FADF8203015F093FA594635
:104370004FF0320B304613F00BFC4F232A462946F0
:1043800004F1CC00CDF800B0FFF7B6FE4FF0050306
:10439000A44A19EE900AA449A4F8FC300097A34B54
:1043A000FFF752FF04F592624F23342119EE900A71
:1043B0000392C4F8C8202E22CDF800B0FFF79CFE6F
:1043C00019EE901A304613F0E3FB4F232A46294694
:1043D00004F5A270CDF800B0FFF78EFE4FF0050394
:1043E0004846904A9049A4F8743100978F4BFFF7E4
:1043F0002BFF039B6F2248463421C4F84031CDF88F
:1044000000B04F23FFF778FE494630464FF00109D0
:1044100013F0BEFB4F232A46294604F5DE70CDF883
:1044200000B0FFF769FE4FF0050340467D4A7E4924
:10443000A4F8EC31009704AF7C4BFFF705FF039A1B
:104440004F2340463421C4F8B821CDF800B0B12242
:10445000FFF752FE41463046DFF8E48113F098FB47
:104460004C2240F225111AEE100AFFF738FE08A977
:104470001AEE100AADF8209015F00CFA1AEE101A88
:10448000304613F085FB3D22562118EE100AFFF747
:1044900026FE4FF07F42384618EE101AC4F85C2210
:1044A000A4F8605214F0F2FD04F51A7397E80700BF
:1044B00083E80700042308A918EE100ACDF820802D
:1044C000ADF8243015F08AF818EE101A304613F0C3
:1044D0005FFB7E22562118EE900AFFF700FE4FF098
:1044E0007F42384618EE901AC4F8A422A4F8A852C5
:1044F00014F0CCFD04F52C7397E8070083E807005F
:10450000032308A918EE900ACDF82080ADF82430D6
:1045100015F064F818EE901A304613F039FBC022FB
:10452000552119EE100AFFF7DAFD4FF07F423846A9
:1045300019EE101AC4F8EC22A4F8F05214F0A6FDFB
:1045400004F53E7397E8070083E807004FF0020187
:1045500019EE100ACDF82080ADF8241008A915F046
:104560003DF819EE101A304613F012FB78232A4654
:10457000294604F54E70CDF800B0FFF7BDFD284B7D
:104580004FF0050228490093A3F133131AEE900A65
:10459000A4F86823A3F54C53224AFFF755FE039B6A
:1045A000D42240F225111AEE900AC4F83433CDF823
:1045B00000B07823FFF7A0FD1AEE901A304613F0F2
:1045C000E7FA5123602240F22511504600937823E8
:1045D000FFF792FD4FF0FF3338465146C4F8AC3335
:1045E000D4F87C33A4F8B053D3F88430984704F55A
:1045F0006E7397E8070083E807000D4B04F57277A8
:104600001B68FBB90B4B60210B4A0C4827F062FC7E
:10461000380E0308F40C0308200E0308013F0008BD
:10462000996633FFCC9900FF996600FF663300FF5F
:1046300004590120480B03084A0C0308C50B030862
:1046400030070308124B1B881BB9124B6121124A19
:10465000DBE7124B2946186800F004FA104A0346BB
:104660006421384619F01BFE08A95046C4F8C473EB
:10467000CDF82080ADF8249014F0B0FF30465146BC
:1046800013F086FA20460BB0BDEC068BBDE8F08F28
:10469000085901200C0C03084A0C0308105901208A
:1046A000C82603087047000030B5164D8FB02C683F
:1046B000BFF35B8F14F0010420D1284627F0F9FAEC
:1046C000E0B13F23012210490993104B1048089391
:1046D000104B0A940594CDE906430423CDE9033237
:1046E0000A23CDE90B440093CDE90144FFF78CFB8D
:1046F000094827F00DFC284627F0E7FA04480FB0D8
:1047000030BD00BFF8240020B80E09903C3C0308DF
:10471000FC240020503C0308A54600087047000018
:1047200030B5164D8FB02C68BFF35B8F14F00104C9
:1047300020D1284627F0BDFAE0B13F2304221049DA
:104740000993104B10480893104B0A940594CDE937
:1047500006430123CDE903231423CDE90B44009341
:10476000CDE90144FFF750FB094827F0D1FB28466B
:1047700027F0ABFA04480FB030BD00BF2825002059
:10478000C80E0990403C03082C250020543C030827
:104790001D4700087047000030B5164D8FB02C68DB
:1047A000BFF35B8F14F0010420D1284627F081FA73
:1047B000E0B13F23012210490993104B10480893A0
:1047C000104B0A940594CDE906430423CDE9033246
:1047D0002823CDE90B440093CDE90144FFF714FBF6
:1047E000094827F095FB284627F06FFA04480FB0D8
:1047F00030BD00BF58250020000F0990443C03083D
:104800005C250020583C03089547000870470000CD
:1048100030B5164D8FB02C68BFF35B8F14F00104D8
:1048200020D1284627F045FAE0B13F230122104964
:104830000993104B10480893104B0A940594CDE946
:1048400006430423CDE903325023CDE90B44009302
:10485000CDE90144FFF7D8FA094827F059FB28466B
:1048600027F033FA04480FB030BD00BF8825002080
:10487000100F0990483C03088C2500205C3C03087D
:104880000D4800087047000030B5174D8FB02C68F8
:10489000BFF35B8F14F0010422D1284627F009FAF8
:1048A000F0B13F23282211490993114B1148089375
:1048B000114B0A940793012301940493CDE9053326
:1048C0000423CDE902430F23CDE90B4400931223C7
:1048D000FFF79AFA094827F01BFB284627F0F5F95D
:1048E00004480FB030BD00BFB8250020200F09904C
:1048F0004C3C0308BC250020603C030885480008A8
:1049000000207047002070470EB403B503AB0021B0
:1049100053F8042B019317F057FC02B05DF804EB39
:1049200003B070470CB407B504AB53F8042B0193E4
:1049300017F04AFC03B05DF804EB02B070470000CA
:10494000436C10B5044673B3038F2BB9184BC521C4
:10495000184A194827F0BEFAC38E00EB43035B8C5C
:104960000BB318F0DFFE238F012B03D8134BCB21A1
:10497000134AEEE7E28E40F63F10531C9BB2092B20
:10498000194688BFA3F10A0104EB4101498C814219
:1049900009D10A2B04EB420228BF0023508C04EB00
:1049A0004303588451842046BDE8104018F0BCBD34
:1049B000780E0308810E03082C0F0308760F0308F6
:1049C000840F030818F079BD10B586B002AC84E8F6
:1049D00006001A460AAB214605930193099B0093F2
:1049E000089B16F041F806B010BD000038B518BBA2
:1049F000124B13481C681349B4B122682244026068
:104A0000626822440A60A26814440F4B00221A8094
:104A100000F038F8054600F033F80C4B1C600C4BE6
:104A20001D600C4B188007E00B4B03600B4B0B60B9
:104A30000B4B1C68002CE8D138BD00BFE8250020D6
:104A4000EC250020F0250020F42500200459012049
:104A50000C59012008590120641109905011099046
:104A600084110990044B1B6853F82100034B1B6809
:104A700003EB4000704700BFF0250020EC2500202C
:104A80000520704700487047F825002010B5084CF5
:104A9000FFF7BEFE2060FFF77FFE6060FFF704FEB9
:104AA000A060FFF73DFEE060FFF7EEFE206110BD65
:104AB000F8250020704710B504464FF4AE7127F07A
:104AC000F6F8204610BD10B50446D0F8580100F0A5
:104AD00012F82046BDE8104016F0AABC10B50446F6
:104AE000FFF720F9014B2046236010BD601003083A
:104AF0000022026070477047704704387047704763
:104B000010B50446102127F0D2F8204610BDA0F1C0
:104B10000400F5E70022C1608260044A10B502F18A
:104B2000080420320460426010BD00BFAC100308CE
:104B300070470000084B10B50446036000F597600D
:104B400027F0F0F804F5946027F0ECF82046FFF722
:104B5000D5F9204610BD00BFFC10030810B504466F
:104B6000FFF7E8FF4FF4BA61204627F0A0F820468F
:104B700010BD000038B50446FFF772FB0D4B002551
:104B800004F598600C4A236004F59563C4F8B804F2
:104B9000D11EC4F8A034C4F8A45484F8A85427F053
:104BA000E1F803232046C4F8BC34D4F8B834DD70EF
:104BB00038BD00BFFC100308D7100308FFF79FB9EA
:104BC00010B5CCB00446D0F8A014962201A818F075
:104BD000F2FF01AA962104F5727019F04AFB04F560
:104BE0005F7017F01CFC4CB010BD000010B50446FF
:104BF000044900F5946027F02FF92046BDE81040E5
:104C0000FFF7DEBF26F7020810B50446044900F599
:104C1000946027F021F92046BDE81040FFF7D0BF8F
:104C20003322030810B50446044900F5946027F0C8
:104C300013F92046BDE81040FFF7C2BFD6100308A5
:104C400010B59622CCB0044679B1094901A818F0F4
:104C5000B2FF01AA962104F5727019F00AFB04F55F
:104C60005F7017F0DCFB4CB010BD0249EEE700BFEF
:104C7000D8100308E5100308D0F8A424D0F8BC34F9
:104C80009A4210B5044612D1D0F8A004D4F8B81452
:104C900012B128F0ADF850B901212046FFF7D0FF3E
:104CA0000023D4F8A024C4F8A434137010BD00214C
:104CB000F3E7000000B54FF4807295B04FF08071BB
:104CC00003460C9205220F910121069200220191C8
:104CD0000B92139200920B48CDE90312CDE90D22FD
:104CE000CDE91122102206A902924FF4800205920A
:104CF0006A4601F079FD003818BF012015B05DF853
:104D000004FB00BF0C26002000B54FF4807395B063
:104D100041F2883217480C93062306A90693002314
:104D2000CDE90D330F930B931393CDE9113301F0BC
:104D300018FDE0B9022301224FF4800104900D48D0
:104D4000CDE900331023CDE9023205236A46CDE9CF
:104D500005134FF0807306A90F9341F2883301F0D9
:104D600043FD003818BF012015B05DF804FB012099
:104D7000FAE700BF0C26002000B54FF4807391B015
:104D80004FF040720E480893EB2302A902934FF4B0
:104D9000406309934FF4005305930023CDE90A3291
:104DA0000A220F9307926A46CDE90D33CDE900330D
:104DB00001F06AFD003818BF012011B05DF804FB56
:104DC0000C260020454B012145489A6B42F0020217
:104DD000F0B59A638DB09A6B09240427002602F07F
:104DE0000202404D0092009A9A6942F002029A61D2
:104DF0009A6922F002029A611A6B42F002021A6367
:104E00001A6B02F002020192019A1A6B42F002023E
:104E10001A631A6B02F002020292029A1A6B42F0B3
:104E200008021A631A6B02F008020392039A1A6BC3
:104E300042F008021A631A6B02F008020492049A04
:104E40001A6B42F010021A631A6B02F010020592FC
:104E5000059A1A6B42F008021A6340221B6B03F09A
:104E600008030693069B0223CDE907230323CDE91C
:104E700009130A2307A90B9300F03CFC07A9184863
:104E8000079709960B9400F035FC4FF4006307A9CF
:104E900028460B94079300F02DFC4FF4805307A98C
:104EA00028460B94079300F025FC07A90E480797A6
:104EB0000B9400F01FFC4FF4005307A928460B94F5
:104EC000079300F017FC32460F215C2000F0D8F960
:104ED0005C2000F007FA0DB0F0BD00BF00380240C2
:104EE00000040240000C024000100240F0B5494CA2
:104EF00091B0494B2046236001F020FC054610B1DB
:104F0000012011B0F0BD01462046FFF75BFF0126EE
:104F100004234FF08077C4E901631023E36097FA1C
:104F2000A7F3B3FA83F32046013B23614FF4A06358
:104F3000C4E90755C4E9053501F0ACFB0028DFD111
:104F40004FF4807566230B9041F28832079002A9D6
:104F50000F9008950293CDE90900CDE90D00204698
:104F600001F0FFFB08B10420CBE7992341F288321E
:104F700002A92046029301F0F4FB0028F3D141F28C
:104F80008830FFF797FE0028EDD18523079041F286
:104F9000883202A9089502930B97CDE90900CDE963
:104FA0000C60CDE90E00204601F0DBFB0028DAD1D1
:104FB00041F288320DF10701204601F04BFD002837
:104FC000D1D1FFF7A1FE0028CDD18123F022029399
:104FD00092FAA2F20A219DF80730B2FA82F2204634
:104FE00003F00F0301FA02F202A9134341F28832DF
:104FF0008DF8073001F0B5FB0028B4D141F28832BA
:105000000DF10701204601F0C9FC00283FF479AFFB
:10501000A9E700BF0C260020001000A00F490020C7
:10502000D1F8883043F47003C1F888300C4B1A680B
:1050300042F001021A6098601A6822F0847222F429
:1050400080321A60074A5A601A6822F480221A6075
:10505000D8604FF000638B60704700BF00ED00E048
:1050600000380240103000247047002070470000D4
:10507000002337B58DF807300D4B1A780AB9012295
:105080001A700324C5B2013CA8212846FDF7A6F8F2
:1050900014F0FF048DF807009DF80730DBB203D150
:1050A0009DF8070003B030BD512BECD1F8E700BFED
:1050B0005A26002013B500240221C0B28DF8074003
:1050C000FDF78CF88DF807009DF8073003F00F030B
:1050D0008DF807309DF80730052B01D98DF8074072
:1050E0009DF80720034B9DF807005A7000229A7024
:1050F00002B010BD5A2600202DE9F74F2F4C15465F
:105100004FF000080F46A37862788DF807809A4226
:105110004DD9092B4ED803EB43035B00DBB2191DBD
:1051200003F1030B03F1060A0533C9B25FFA8BFBE7
:105130005FFA8AFA5FFA83F8C6B2DFF884903046E5
:10514000FDF74CF88DF807009DF8073059463046BA
:10515000A9F80030FDF742F88DF8070051469DF898
:1051600007303046B9F800201B0203F47063134384
:105170003B80A9F80030FDF731F88DF80700414673
:105180009DF807303046A9F80030FDF727F88DF874
:1051900007009DF80730B9F800201B0203F4706384
:1051A0001343A9F800302B80A3780133A37003B018
:1051B000BDE8F08FC246C3464146BDE75A260020EF
:1051C000582600200122A421C0B2FCF7EDBF002226
:1051D000A421C0B2FCF7E8BFFFF7F9BF7047000099
:1051E000024B1A780AB901221A7070475A26002019
:1051F000074A032008B5136843F48073136000F076
:105200002DF80020FCF75EFEFCF748FB002008BDEF
:10521000003C0240034A044B11681B780B441360A6
:10522000704700BF6026002038000020014B18683E
:10523000704700BF6026002038B50446FFF7F6FF30
:105240000546631C1EBF044B1B78E418FFF7EEFFF6
:10525000431BA342FAD338BD38000020074903029C
:10526000CA6803F4E06322F4E0621204120C1343F0
:1052700043F0BF6343F40033CB60704700ED00E0C0
:10528000164B30B5DC68C4F30224C4F10703251DB6
:10529000042B28BF0423062D4FF0FF358CBF033CA1
:1052A000002405FA03F3002805FA04F521EA0303B4
:1052B00022EA050203FA04F343EA02034FEA031366
:1052C000DBB206DB00F1604000F5614080F800339E
:1052D00030BD00F00F00024A1354F9E700ED00E082
:1052E00014ED00E0002807DB4109012300F01F0056
:1052F000024A834042F82130704700BF00E100E0DD
:1053000000280CDB4309012200F01F000449203370
:10531000824041F82320BFF34F8FBFF36F8F704758
:1053200000E100E0BFF35F8F044B5A6A22F4803241
:105330005A620022C3F89420704700BF00ED00E0DD
:10534000064B40F00100C3F894005A6A42F48032E0
:105350005A62BFF34F8FBFF36F8F704700ED00E0CD
:105360004378144A10B5C2F898300178E9B143681F
:10537000C2F89C30C37A047B1B0643EA04730B43D8
:10538000817A43EAC143417B43EA8143817B43EA1B
:105390004143C17B43EA0143417A43EA0123017A55
:1053A00043EA4103C2F8A03010BDC2F89C10C2F815
:1053B000A010F9E700ED00E010B5044608B901209F
:1053C00010BD437F03F0FF0213B90277FCF784FAA4
:1053D000022363772379E3B92368134A5A619A68F1
:1053E00022F018029A6062792368D2B94FF0FF3236
:1053F0001A6100209A68616922F060020A43A1697B
:105400009A609A6822F080020A439A6001236377C7
:10541000D6E7D4E90212204600F008F80028E2D0CE
:10542000CDE72269E4E700BFB71DC1041F2310B513
:10543000013B1CD321FA03F4E407F9D5102A12D05A
:1054400004D83AB1082A10D001200BE0182AFBD169
:10545000062BF9D800684161836823F018031343D1
:105460008360002010BD072BF3E70F2BF1E7002A24
:10547000EAD1EFE770B50446866DFFF7D7FE054623
:1054800094F83530022B06D0802301206365002379
:1054900084F8343070BD23681A6822F016021A604E
:1054A0005A6922F080025A61226C0AB9A26C1AB1C0
:1054B0001A6822F008021A601A6822F001021A60C3
:1054C00023681B6813F0010308D1E16D3F221846E1
:1054D0008A40B260012284F83520D8E7FFF7A6FEA3
:1054E000401B0528ECD920230320636584F8350090
:1054F000CDE710B5044630B390F8393003F0FF0221
:105500001BB980F83820FCF7FDF922680223616896
:10551000002084F83930136823F440330B43A1682A
:105520001360536B23F007030B43E1685363136C61
:1055300023F47F5323F03F030B4313640123E06301
:1055400084F8393010BD0120FCE7704770470368CC
:1055500070B55E6804461D68F20714D5E90512D5DA
:105560001A6822F480721A60C26B42F00102C263B0
:1055700001229A60042380F83930002380F8383003
:10558000436903B19847B20616D5AB0414D5236816
:105590001A6822F400521A6020229A60E36B43F0EA
:1055A0000203E363042384F83930002384F838309D
:1055B00063690BB120469847300716D5290514D5E5
:1055C00023681A6822F400621A6008229A60E36B6A
:1055D00043F00403E363042384F83930002384F8A0
:1055E000383063690BB12046984772070BD56B05BD
:1055F00009D5236820461A6822F480621A600422C2
:105600009A60FFF7A2FFB00714D5A90512D5236849
:105610001A6822F400721A6002229A60E36BE36354
:10562000012384F83930002384F8383023690BB122
:1056300020469847F20613D5EB0411D5236820467F
:105640001A6822F480521A6010229A60E36BE363B6
:10565000012384F83930002384F83830FFF776FFCF
:1056600070BD0000F0B590F83830012B4FF0020308
:105670002BD080F83930012200EB01131C4F80F849
:1056800038200E015D6AD3E9074244EA0242093C30
:10569000012C96BF05F07F4342EA05621A43036876
:1056A000A9B9596A012C01EA070142EA01025A62CA
:1056B00082699A6103D8426A22F07F429A6201238A
:1056C00080F83930002380F838301846F0BDD969A9
:1056D000012C01EA070142EA0102DA6100EB06024D
:1056E00092691A61EBD825F07F451D62E7E700BF9C
:1056F000F0FFFC002DE9F74F0023DFF8B8916B4A6B
:1057000001240D689C4004EA050CAC4340F0B480D1
:105710004D684FEA4308032605F0030406FA08F62D
:10572000671EF643012F34D8876807EA060ECF6854
:1057300007FA08F747EA0E078760476827EA0C0E62
:10574000C5F300179F4047EA0E074760C768022C61
:1057500007EA060E8F6807FA08F747EA0E07C760E0
:1057600019D14FEAD30A03F0070B4FF00F0E00EBED
:105770008A0A4FEA8B0BDAF820700EFA0BFE27EA42
:105780000E0E0F6907FA0BF747EA0E07CAF82070EA
:1057900001E0032CDAD1076804FA08F415F4403F5D
:1057A00007EA060744EA0704046065D0D9F84440D4
:1057B00023F0030603F0030744F4804406F1804617
:1057C000BF00C9F8444006F59C36D9F8444004F4BB
:1057D00080440194019C0F24D6F808E0BC402EEAD6
:1057E000040E334CA0424ED004F58064A0424CD04D
:1057F00004F58064A0424AD004F58064A04248D0F9
:1058000004F58064A04246D004F58064A04244D0F0
:1058100004F58064A04242D004F58064A04240D0E8
:1058200004F58064A0423ED004F58064A0420CBF21
:1058300009240A24BC40EF0244EA0E04B4606FEA73
:105840000C06946854BF34404CEA0404AF029460E0
:10585000D46854BF34404CEA0404AF03D4605468A5
:1058600054BF34404CEA0404ED035460146854BF40
:1058700034404CEA040414600133102B7FF440AF31
:1058800003B0BDE8F08F0024D4E70124D2E702245E
:10589000D0E70324CEE70424CCE70524CAE7062496
:1058A000C8E70724C6E70824C4E700BF003C01405E
:1058B00000000240003802402DE9F04F0022494C20
:1058C000DFF82891DFF828A1DFF828B1012303FAD7
:1058D00002FE3EEA01050EEA01076CD122F0030543
:1058E00002F0030C0F26404B05F180454FEA8C0C6B
:1058F000984205F59C3506FA0CF6D5F8088006EABC
:1059000008085DD003F5806398425BD003F580639F
:10591000984259D003F58063984257D003F58063CD
:10592000984255D0484555D0504555D0584555D04A
:1059300003F58053984253D003F5806398420CBF1F
:1059400009230A2303FA0CF3434513D1236823EAFE
:1059500007032360636823EA07036360E36823EABD
:105960000703E360A36823EA0703A360AB6823EAA5
:105970000603AB6056000323056802F0070CB34032
:105980000F274FEA8C0C25EA030507FA0CF7056090
:10599000D50800EB85052E6A26EA07062E62C56843
:1059A00025EA0305C560456825EA0E05456085685A
:1059B00025EA030383600132102A87D1BDE8F08F06
:1059C0000023BFE70123BDE70223BBE70323B9E7B9
:1059D0000423B7E70523B5E70623B3E70723B1E7B9
:1059E0000823AFE7003C01400000024000140240E1
:1059F00000180240001C02400369194214BF012034
:105A0000002070470AB1816170470904FBE74369D0
:105A100001EA030221EA030141EA02418161704780
:105A200003689A69910701D500229A629A69D207A0
:105A300003D49A6942F001029A61704730B5039D20
:105A4000C1F3090104682B43606843EA0243054A35
:105A50000B4342EA555223F0004320EA020003437D
:105A6000636030BDFF63FF0303682DE9F0419C696B
:105A700005460F46164614F010046FD0002410227D
:105A8000A046DA612B689A69900661D4B8F1000FDC
:105A900035D044F0040401202E68B369D90505D53A
:105AA0004FF4807244F001040120F2615A0505D5DB
:105AB0004FF4806244F008040120F2619B054FD549
:105AC0004FF4007344F00204F3612846FFF7A8FF87
:105AD0007368012023F0FF7323F48B3323F4FF73E7
